:100000000C942A000C9434000C9434000C943400AA
:100010000C9434000C9434000C9434000C94340090
:100020000C9434000C9434000C9434000C94340080
:100030000C9434000C9434000C9434000C94340070
:100040000C9434000C9434000C9434000C94340060
:100050000C94340011241FBECFE5D8E0DEBFCDBF25
:100060000E9443000C944C000C9400001FBC83E0E1
:100070008EBD87EF92EC9DBD8CBD08B602FC02C020
:100080001EBC18BE089582E087BB98B382E0892722
:0C00900088BB0E943600F9CFF894FFCF27
:00000001FF
