S01B00006C65645F626C696E6B2861746D6567613332292E7372656340
S11300000C942A000C9434000C9434000C943400A6
S11300100C9434000C9434000C9434000C9434008C
S11300200C9434000C9434000C9434000C9434007C
S11300300C9434000C9434000C9434000C9434006C
S11300400C9434000C9434000C9434000C9434005C
S11300500C94340011241FBECFE5D8E0DEBFCDBF21
S11300600E9436000C944E000C9400008FEF87BB66
S113007021E030E080E090E00DC028BB4FE35DE07C
S113008063E0415050406040E1F700C00000220F9F
S1130090331F01968830910584F3EACFF894FFCF9B
S9030000FC
