:100000000C942A000C943F000C943F000C943F0089
:100010000C943F000C943F000C943F000C943F0064
:100020000C943F000C943F000C943F000C943F0054
:100030000C943F000C943F000C943F000C943F0044
:100040000C943F000C943F000C943F000C943F0034
:100050000C943F0011241FBECFE5D8E0DEBFCDBF1A
:1000600010E0A0E6B0E0ECEBF1E002C005900D92EC
:10007000A037B107D9F70E947F000C94DC000C94E4
:10008000000088BB85B38E7F85BB85B3846085BB4C
:1000900089EF90E00197F1F700C0000085B38B7FF6
:1000A00085BB089588E30E94410089EF90E00197A5
:1000B000F1F700C000008EE00E94410089EF90E05F
:1000C0000197F1F700C0000081E00E94410089EF34
:1000D00090E00197F1F700C00000089588BB85B358
:1000E000816085BB85B3846085BB89EF90E0019713
:1000F000F1F700C0000085B38B7F85BB08950F9397
:100100001F93CF93DF93CDB7DEB72F970FB6F89439
:10011000DEBF0FBECDBF8FE0E0E6F0E0DE0111965E
:1001200001900D928A95E1F78FEF87BB84B38560CC
:1001300084BB0E94520083EC99E00197F1F700C064
:1001400000008CE00E94410083EC99E00197F1F7F8
:1001500000C0000000E010E019C00E946E009FE3A4
:100160002DE083E0915020408040E1F700C0000086
:1001700086E00E9441009FE32DE083E09150204003
:100180008040E1F700C000000F5F1F4FE1E0F0E0AA
:10019000EC0FFD1FE00FF11F80818111DECF80E0A9
:1001A00090E02F960FB6F894DEBF0FBECDBFDF9163
:0C01B000CF911F910F910895F894FFCF9C
:1001BC002041525049542047414E444849200000A8
:00000001FF
