:100000000C942A000C9434000C9434000C943400AA
:100010000C9434000C9434000C9434000C94340090
:100020000C9434000C9434000C9434000C94340080
:100030000C9434000C9434000C9434000C94340070
:100040000C9434000C9434000C9434000C94340060
:100050000C94340011241FBECFE5D8E0DEBFCDBF25
:100060000E9436000C945F000C94000087B38860F7
:1000700087BB83B7886683BF83B7836083BF80E015
:1000800090E00BC08CBF0A962FEF31EE44E0215078
:1000900030404040E1F700C000008F3F910591F3F0
:1000A00088F38FEF90E08CBF0A972FEF31EE44E09A
:1000B000215030404040E1F700C00000F4CFF894F8
:0200C000FFCF70
:00000001FF
